:100000000C945D000C9485000C9485000C94850084
:100010000C9485000C9485000C9485000C9485004C
:100020000C9485000C9485000C9485000C9485003C
:100030000C9485000C9485000C9485000C9485002C
:100040000C942A040C9485000C9485000C94850073
:100050000C9485000C9485000C9485000C9485000C
:100060000C9485000C9485000000000024002700FB
:100070002A0000000000250028002B0004040404CE
:100080000404040402020202020203030303030342
:10009000010204081020408001020408102001021F
:1000A00004081020000000080002010000030407FB
:1000B0000000000000000000800511241FBECFEFEB
:1000C000D8E0DEBFCDBF11E0A0E0B1E0E4E1F0E1B7
:1000D00002C005900D92A834B107D9F721E0A8E439
:1000E000B1E001C01D92A937B207E1F710E0CDE5FC
:1000F000D0E004C02197FE010E94FD07CC35D10756
:10010000C9F70E9474040C9408080C940000CF9264
:10011000DF92EF92FF920F931F93CF93DF936C01C7
:100120007A018B01C0E0D0E0CE15DF0589F0D8015F
:100130006D918D01D601ED91FC910190F081E02D42
:10014000C6010995892B11F47E0102C02196ECCFDE
:10015000C701DF91CF911F910F91FF90EF90DF903A
:10016000CF90089590E0FC01EC55FF4F3491FC01D5
:10017000E057FF4F2491FC01E458FF4FE491EE2338
:1001800009F43BC0332339F1333091F038F4313086
:10019000A9F0323001F584B58F7D12C0373091F06F
:1001A0003830A1F03430B9F4809180008F7D03C0E5
:1001B000809180008F77809380000DC084B58F7709
:1001C00084BD09C08091B0008F7703C08091B000DA
:1001D0008F7D8093B000F0E0EE0FFF1FEE58FF4FD1
:1001E000A591B4918FB7F894EC91611103C020955B
:1001F0002E2301C02E2B2C938FBF0895CF93DF9316
:1002000090E0FC01E057FF4F2491FC01E458FF4FC0
:100210008491882361F190E0880F991FFC01E859CF
:10022000FF4FC591D491FC01EE58FF4FA591B491B9
:10023000611109C09FB7F894888120958223888333
:10024000EC912E230BC0623061F49FB7F894388193
:10025000822F809583238883EC912E2B2C939FBF34
:1002600006C08FB7F894E8812E2B28838FBFDF91CB
:10027000CF9108953FB7F89480914D0190914E0130
:10028000A0914F01B091500126B5A89B05C02F3F0A
:1002900019F00196A11DB11D3FBFBA2FA92F982FAC
:1002A0008827820F911DA11DB11DBC01CD0142E027
:1002B000660F771F881F991F4A95D1F708958F926F
:1002C0009F92AF92BF92CF92DF92EF92FF926B011B
:1002D0007C010E943A014B015C01C114D104E1048C
:1002E000F104F1F00E943A01DC01CB01881999096F
:1002F000AA09BB09883E9340A105B10570F321E02E
:10030000C21AD108E108F10888EE880E83E0981E31
:10031000A11CB11CC114D104E104F10419F7DDCF13
:10032000FF90EF90DF90CF90BF90AF909F908F9015
:100330000895CF93DF93EC0160E08E810E94B200BC
:1003400061E08E810E94B20060E08E810E94B20066
:100350008BE891E00197F1F7DF91CF910895CF926B
:10036000DF92EF92FF920F931F93CF93DF937C0165
:100370006C0187E0C80ED11CC0E0D0E0062F10E071
:10038000B8010C2E02C0759567950A94E2F761706A
:10039000F60181916F010E94B2002196C430D1050F
:1003A00079F7C701DF91CF911F910F91FF90EF90E7
:1003B000DF90CF900C949901CF92DF92EF92FF9251
:1003C0000F931F93CF93DF93EC01F62E642F8C8154
:1003D0000E94B2008D818F3F19F060E00E94B20050
:1003E0008F850F2D10E084FF25C06E0187E0C80EB9
:1003F000D11CE12CF12CB8010E2C02C0759567952B
:100400000A94E2F76170F60181916F010E94B200D7
:10041000FFEFEF1AFF0A88E0E816F10461F7CE015A
:10042000DF91CF911F910F91FF90EF90DF90CF90D0
:100430000C949901B80184E0759567958A95E1F768
:10044000CE010E94AF016F2DCE01DF91CF911F91A0
:100450000F91FF90EF90DF90CF900C94AF0141E0AF
:100460000E94DC0181E090E0089540E00C94DC0102
:10047000843008F083E090917401891710F08FEFB9
:10048000890FE82FF0E0EF59FE4F6489606881E63C
:1004900091E00C94350261E00E9435028BE39FE10C
:1004A0000197F1F70895EF92FF920F931F93CF9367
:1004B000DF93EC01623018F08F8588608F876B8B3B
:1004C0001C8A80E48D8B80E18E8B80E58F8B61E0D0
:1004D0008C810E94FE008D818F3F19F061E00E94A7
:1004E000FE0061E08E810E94FE007E0187E0E80E42
:1004F000F11C00E010E08F8584FD03C084E090E0F3
:1005000002C088E090E0081719074CF461E0F70199
:1005100081917F010E94FE000F5F1F4FECCF8BE3A4
:100520009DE00197F1F760E08C810E94B20060E0ED
:100530008E810E94B2008D818F3F19F060E00E9491
:10054000B2006F8564FD1DC063E0CE010E94AF0163
:100550000BE416E4C8010197F1F763E0CE010E94B5
:10056000AF01C8010197F1F763E0CE010E94AF012E
:1005700083E592E00197F1F762E0CE010E94AF01BE
:1005800016C06062CE010E9435028BE496E40197AA
:10059000F1F76F856062CE010E94350283E592E03B
:1005A0000197F1F76F856062CE010E9435026F8579
:1005B0006062CE010E94350284E0888B6CE0CE013F
:1005C0000E943502CE010E944B0282E0898B66E0D8
:1005D000CE01DF91CF911F910F91FF90EF900C947E
:1005E0003502009769F0FC0101900020E9F731978E
:1005F000AF01481B590BBC0181E691E00C948700C8
:1006000080E090E008958F929F92AF92BF920F93F7
:100610001F93CF93DF93CDB7DEB7A1970FB6F894B2
:10062000DEBF0FBECDBF19A2423008F44AE08E01F2
:100630000F5D1F4F842E912CA12CB12CA50194018C
:100640000E94DB07E62FB901CA0101501109EA3007
:1006500014F4E05D01C0E95CD801EC93232B242B5A
:10066000252B61F7C8010E94F102A1960FB6F894FC
:10067000DEBF0FBECDBFDF91CF911F910F91BF9015
:10068000AF909F908F9008954F925F926F927F925C
:100690008F929F92AF92BF92CF92DF92EF92FF9292
:1006A0006B017C01B42E9B01AC010E94D60788230C
:1006B00019F088E091E027C026013701E89477F827
:1006C0002FEF3FEF4FE75FE7C301B2010E94D6076C
:1006D00081110DC02FEF3FEF4FE75FE7C301B2017C
:1006E0000E940C0618161CF48CE091E00CC02FEF51
:1006F0003FEF4FE75FE4C701B6010E946407181699
:1007000084F480E191E0FF90EF90DF90CF90BF9074
:10071000AF909F908F907F906F905F904F900C94D0
:10072000F1022FEF3FEF4FE75FECC701B6010E94E8
:100730000C0687FDE6CF20E030E0A901C701B60135
:100740000E940C0687FF11C0E0916101F0916201E7
:100750000190F081E02D6DE281E691E009954C0178
:10076000F7FAF094F7F8F09402C0812C912CA12CA8
:1007700060E070E080E09FE3AB1441F020E030E007
:1007800040E251E40E941106A394F6CF9B01AC0114
:10079000C701B6010E94A0052B013C010E948306FF
:1007A0006B017C010E94B2069B01AC01C301B20146
:1007B0000E949F052B013C014AE0C701B6010E943F
:1007C00003037C01E80CF91CBB2069F0E091610196
:1007D000F09162010190F081E02D6EE281E691E0FE
:1007E0000995E80EF91EDB2CDD2021F120E030E038
:1007F00040E251E4C301B2010E9469072B013C01B0
:100800000E9483064B01A12CB12C4AE0C501B40122
:100810000E940303E80EF91EC501B4010E94B2064E
:100820009B01AC01C301B2010E949F052B013C0159
:10083000DA94DACFC701FF90EF90DF90CF90BF90AE
:10084000AF909F908F907F906F905F904F900895A2
:100850000E9403081F920F920FB60F9211242F933C
:100860003F938F939F93AF93BF9380914901909152
:100870004A01A0914B01B0914C013091480123E015
:10088000230F2D3720F40196A11DB11D05C026E8C8
:10089000230F0296A11DB11D2093480180934901A9
:1008A00090934A01A0934B01B0934C0180914D016C
:1008B00090914E01A0914F01B09150010196A11D60
:1008C000B11D80934D0190934E01A0934F01B093C1
:1008D0005001BF91AF919F918F913F912F910F90B8
:1008E0000FBE0F901F901895789484B5826084BDD8
:1008F00084B5816084BD85B5826085BD85B5816024
:1009000085BD80916E00816080936E0010928100A1
:10091000809181008260809381008091810081605C
:10092000809381008091800081608093800080911D
:10093000B10084608093B1008091B00081608093A9
:10094000B00080917A00846080937A0080917A0070
:10095000826080937A0080917A00816080937A002F
:1009600080917A00806880937A001092C100C6E07E
:1009700061E08C2F0E94FE00CF5FCD30C9F760E0B0
:100980008EE00E94FE0062E081E691E00E94530248
:1009900081E691E00E944B0280E00E94380284E1EF
:1009A00091E00E94F10281E00E94380283E291E02E
:1009B0000E94F10264EF71E080E090E00E945F012C
:1009C00081E691E00E944B0261E086E00E94B20065
:1009D000C0E0D0E010E410937C0080917A00806445
:1009E00080937A0080917A0086FDFCCF6091780038
:1009F0008091790070E0782B072E000C880B990B02
:100A00000E94B40660935D0170935E0180935F0164
:100A10009093600120E030E04AEF53E40E946907C0
:100A200020E030EC4FE754E40E9411066093590136
:100A300070935A0180935B0190935C016093550120
:100A400070935601809357019093580126E636E63D
:100A500046EE5FE30E94690720E030E040E052E4A8
:100A60000E94A0056093510170935201809353013D
:100A70009093540180E00E94380283E391E00E9449
:100A8000F1026091590170915A0180915B0190913E
:100A90005C0142E00E94440381E00E9438028CE342
:100AA00091E00E94F1026091510170915201809198
:100AB00053019091540142E00E94440368EE73E0B8
:100AC00080E090E00E945F0129E23CE546E152E4CB
:100AD0006091590170915A0180915B0190915C0184
:100AE0000E946407181614F460E001C061E086E01B
:100AF0000E94B200209709F46ECF0E9400006BCFD5
:100B0000E1E6F1E01382128284E091E09183808338
:100B10008CE084838FEF85838BE086838AE08783F4
:100B200089E0808788E0818787E082871386148642
:100B300015861686178661E0CF010C945302505833
:100B4000BB27AA270E94B7050C942A070E941C07FE
:100B500038F00E94230720F039F49F3F19F426F45F
:100B60000C9419070EF4E095E7FB0C941307E92F9A
:100B70000E943B0758F3BA1762077307840795076B
:100B800020F079F4A6F50C945D070EF4E0950B2E99
:100B9000BA2FA02D0B01B90190010C01CA01A001CF
:100BA0001124FF27591B99F0593F50F4503E68F12A
:100BB0001A16F040A22F232F342F4427585FF3CF6B
:100BC000469537952795A795F0405395C9F77EF43C
:100BD0001F16BA0B620B730B840BBAF09150A1F085
:100BE000FF0FBB1F661F771F881FC2F70EC0BA0F0B
:100BF000621F731F841F48F4879577956795B79593
:100C0000F7959E3F08F0B0CF9395880F08F099278D
:100C1000EE0F9795879508950E94EF0608F481E0FE
:100C200008950E9425060C942A070E94230758F075
:100C30000E941C0740F029F45F3F29F00C94130731
:100C400051110C945E070C9419070E943B0768F33E
:100C50009923B1F3552391F3951B550BBB27AA2775
:100C600062177307840738F09F5F5F4F220F331FAF
:100C7000441FAA1FA9F335D00E2E3AF0E0E832D077
:100C800091505040E695001CCAF72BD0FE2F29D07A
:100C9000660F771F881FBB1F261737074807AB074C
:100CA000B0E809F0BB0B802DBF01FF2793585F4FC1
:100CB0003AF09E3F510578F00C9413070C945E07B0
:100CC0005F3FE4F3983ED4F3869577956795B795A3
:100CD000F7959F5FC9F7880F911D9695879597F9AE
:100CE0000895E1E0660F771F881FBB1F6217730727
:100CF0008407BA0720F0621B730B840BBA0BEE1F3C
:100D000088F7E09508950E94430788F09F5798F070
:100D1000B92F9927B751B0F0E1F0660F771F881F00
:100D2000991F1AF0BA95C9F714C0B13091F00E941A
:100D30005D07B1E008950C945D07672F782F882731
:100D4000B85F39F0B93FCCF3869577956795B39541
:100D5000D9F73EF490958095709561957F4F8F4FB0
:100D60009F4F0895E89409C097FB3EF490958095B5
:100D7000709561957F4F8F4F9F4F9923A9F0F92F61
:100D800096E9BB279395F695879577956795B795DF
:100D9000F111F8CFFAF4BB0F11F460FF1BC06F5FC5
:100DA0007F4F8F4F9F4F16C0882311F096E911C0D7
:100DB000772321F09EE8872F762F05C0662371F0F8
:100DC00096E8862F70E060E02AF09A95660F771F0C
:100DD000881FDAF7880F9695879597F90895990FE8
:100DE0000008550FAA0BE0E8FEEF16161706E807F5
:100DF000F907C0F012161306E407F50798F0621B16
:100E0000730B840B950B39F40A2661F0232B242BEA
:100E1000252B21F408950A2609F4A140A6958FEF09
:100E2000811D811D089597F99F6780E870E060E05B
:100E300008959FEF80EC089500240A941616170673
:100E400018060906089500240A94121613061406BB
:100E500005060895092E0394000C11F4882352F01E
:100E6000BB0F40F4BF2B11F460FF04C06F5F7F4FD6
:100E70008F4F9F4F089557FD9058440F551F59F0BD
:100E80005F3F71F04795880F97FB991F61F09F3F77
:100E900079F087950895121613061406551FF2CFA0
:100EA0004695F1DF08C0161617061806991FF1CFF0
:100EB00086957105610508940895E894BB27662717
:100EC0007727CB0197F908950E94EF0608F48FEF7A
:100ED00008950E947C070C942A070E941C0738F092
:100EE0000E94230720F0952311F00C9413070C9413
:100EF000190711240C945E070E943B0770F3959F1D
:100F0000C1F3950F50E0551F629FF001729FBB2700
:100F1000F00DB11D639FAA27F00DB11DAA1F649F9C
:100F20006627B00DA11D661F829F2227B00DA11D4F
:100F3000621F739FB00DA11D621F839FA00D611DD5
:100F4000221F749F3327A00D611D231F849F600DF6
:100F5000211D822F762F6A2F11249F5750409AF01F
:100F6000F1F088234AF0EE0FFF1FBB1F661F771FAB
:100F7000881F91505040A9F79E3F510580F00C9476
:100F800013070C945E075F3FE4F3983ED4F3869515
:100F900077956795B795F795E7959F5FC1F7FE2B16
:100FA000880F911D9695879597F908950E94EF06F1
:100FB000880B990B0895A1E21A2EAA1BBB1BFD01F9
:100FC0000DC0AA1FBB1FEE1FFF1FA217B307E40728
:100FD000F50720F0A21BB30BE40BF50B661F771F80
:100FE000881F991F1A9469F7609570958095909560
:100FF0009B01AC01BD01CF010895EE0FFF1F0590CD
:10100000F491E02D099481E090E0F8940C940808A4
:04101000F894FFCF82
:10101400000000002F0287006E616E00696E66009A
:101024006F766600202054454D5045524154555228
:10103400452000204449474954414C204D455445DE
:1010440052200044656772656543200046616872FA
:08105400656E686569742000F7
:00000001FF
